{
  "contractName": "TrustlessHealth",
  "abi": [
    {
      "constant": true,
      "inputs": [
        {
          "name": "",
          "type": "uint256"
        }
      ],
      "name": "receipts",
      "outputs": [
        {
          "name": "buyerAddress",
          "type": "address"
        },
        {
          "name": "offeringId",
          "type": "uint256"
        }
      ],
      "payable": false,
      "stateMutability": "view",
      "type": "function"
    },
    {
      "constant": true,
      "inputs": [
        {
          "name": "",
          "type": "uint256"
        },
        {
          "name": "",
          "type": "uint256"
        }
      ],
      "name": "analysisOfferings",
      "outputs": [
        {
          "name": "host",
          "type": "string"
        },
        {
          "name": "paymentAddress",
          "type": "address"
        },
        {
          "name": "price",
          "type": "uint256"
        },
        {
          "name": "categoryId",
          "type": "uint256"
        },
        {
          "name": "title",
          "type": "string"
        },
        {
          "name": "description",
          "type": "string"
        },
        {
          "name": "isValid",
          "type": "bool"
        }
      ],
      "payable": false,
      "stateMutability": "view",
      "type": "function"
    },
    {
      "constant": true,
      "inputs": [],
      "name": "owner",
      "outputs": [
        {
          "name": "",
          "type": "address"
        }
      ],
      "payable": false,
      "stateMutability": "view",
      "type": "function"
    },
    {
      "constant": true,
      "inputs": [
        {
          "name": "",
          "type": "uint256"
        }
      ],
      "name": "categories",
      "outputs": [
        {
          "name": "",
          "type": "string"
        }
      ],
      "payable": false,
      "stateMutability": "view",
      "type": "function"
    },
    {
      "inputs": [],
      "payable": false,
      "stateMutability": "nonpayable",
      "type": "constructor"
    },
    {
      "anonymous": false,
      "inputs": [
        {
          "components": [
            {
              "name": "host",
              "type": "string"
            },
            {
              "name": "paymentAddress",
              "type": "address"
            },
            {
              "name": "price",
              "type": "uint256"
            },
            {
              "name": "categoryId",
              "type": "uint256"
            },
            {
              "name": "title",
              "type": "string"
            },
            {
              "name": "description",
              "type": "string"
            },
            {
              "name": "isValid",
              "type": "bool"
            }
          ],
          "indexed": false,
          "name": "offering",
          "type": "tuple"
        },
        {
          "components": [
            {
              "name": "buyerAddress",
              "type": "address"
            },
            {
              "name": "offeringId",
              "type": "uint256"
            }
          ],
          "indexed": false,
          "name": "purchaseReceipt",
          "type": "tuple"
        }
      ],
      "name": "purchasedOffering",
      "type": "event"
    },
    {
      "constant": false,
      "inputs": [
        {
          "name": "host",
          "type": "string"
        },
        {
          "name": "paymentAddress",
          "type": "address"
        },
        {
          "name": "price",
          "type": "uint256"
        },
        {
          "name": "categoryId",
          "type": "uint256"
        },
        {
          "name": "title",
          "type": "string"
        },
        {
          "name": "description",
          "type": "string"
        }
      ],
      "name": "submitAnalysisOffering",
      "outputs": [],
      "payable": false,
      "stateMutability": "nonpayable",
      "type": "function"
    },
    {
      "constant": false,
      "inputs": [
        {
          "name": "category",
          "type": "string"
        }
      ],
      "name": "createCategory",
      "outputs": [],
      "payable": false,
      "stateMutability": "nonpayable",
      "type": "function"
    },
    {
      "constant": true,
      "inputs": [
        {
          "name": "categoryId",
          "type": "uint256"
        }
      ],
      "name": "categoryExists",
      "outputs": [
        {
          "name": "",
          "type": "bool"
        }
      ],
      "payable": false,
      "stateMutability": "view",
      "type": "function"
    },
    {
      "constant": true,
      "inputs": [],
      "name": "getCategories",
      "outputs": [
        {
          "name": "",
          "type": "string[]"
        }
      ],
      "payable": false,
      "stateMutability": "view",
      "type": "function"
    },
    {
      "constant": true,
      "inputs": [
        {
          "name": "categoryId",
          "type": "uint256"
        }
      ],
      "name": "getOfferings",
      "outputs": [
        {
          "components": [
            {
              "name": "host",
              "type": "string"
            },
            {
              "name": "paymentAddress",
              "type": "address"
            },
            {
              "name": "price",
              "type": "uint256"
            },
            {
              "name": "categoryId",
              "type": "uint256"
            },
            {
              "name": "title",
              "type": "string"
            },
            {
              "name": "description",
              "type": "string"
            },
            {
              "name": "isValid",
              "type": "bool"
            }
          ],
          "name": "",
          "type": "tuple[]"
        }
      ],
      "payable": false,
      "stateMutability": "view",
      "type": "function"
    },
    {
      "constant": false,
      "inputs": [
        {
          "name": "offeringId",
          "type": "uint256"
        },
        {
          "name": "categoryId",
          "type": "uint256"
        }
      ],
      "name": "purchaseOffering",
      "outputs": [],
      "payable": false,
      "stateMutability": "nonpayable",
      "type": "function"
    }
  ],
  "bytecode": "0x608060405234801561001057600080fd5b50336000806101000a81548173ffffffffffffffffffffffffffffffffffffffff021916908373ffffffffffffffffffffffffffffffffffffffff1602179055506119a1806100606000396000f3fe6080604052600436106100a4576000357c0100000000000000000000000000000000000000000000000000000000900463ffffffff1680630f7ee1ec146100a957806320f90261146100e757806325030e6a146101245780634db0412c1461014d5780635aeefaeb146101785780636e679d1b146101a15780638da5cb5b146101e4578063c6cdbe5e1461020f578063dc2986821461024c578063ee05e2ad14610275575b600080fd5b3480156100b557600080fd5b506100d060048036036100cb9190810190611341565b6102b2565b6040516100de929190611692565b60405180910390f35b3480156100f357600080fd5b5061010e60048036036101099190810190611341565b610305565b60405161011b91906116dd565b60405180910390f35b34801561013057600080fd5b5061014b60048036036101469190810190611270565b6105f7565b005b34801561015957600080fd5b5061016261077f565b60405161016f91906116bb565b60405180910390f35b34801561018457600080fd5b5061019f600480360361019a919081019061136a565b610868565b005b3480156101ad57600080fd5b506101c860048036036101c3919081019061136a565b610c80565b6040516101db979695949392919061173c565b60405180910390f35b3480156101f057600080fd5b506101f9610ed3565b6040516102069190611677565b60405180910390f35b34801561021b57600080fd5b5061023660048036036102319190810190611341565b610ef8565b604051610243919061171a565b60405180910390f35b34801561025857600080fd5b50610273600480360361026e919081019061122f565b610fb3565b005b34801561028157600080fd5b5061029c60048036036102979190810190611341565b610ff5565b6040516102a991906116ff565b60405180910390f35b6002818154811015156102c157fe5b90600052602060002090600202016000915090508060000160009054906101000a900473ffffffffffffffffffffffffffffffffffffffff16908060010154905082565b606061031082610ff5565b151561031b57600080fd5b60036000838152602001908152602001600020805480602002602001604051908101604052809291908181526020016000905b828210156105ec578382906000526020600020906007020160e06040519081016040529081600082018054600181600116156101000203166002900480601f01602080910402602001604051908101604052809291908181526020018280546001816001161561010002031660029004801561040b5780601f106103e05761010080835404028352916020019161040b565b820191906000526020600020905b8154815290600101906020018083116103ee57829003601f168201915b505050505081526020016001820160009054906101000a900473ffffffffffffffffffffffffffffffffffffffff1673ffffffffffffffffffffffffffffffffffffffff1673ffffffffffffffffffffffffffffffffffffffff1681526020016002820154815260200160038201548152602001600482018054600181600116156101000203166002900480601f0160208091040260200160405190810160405280929190818152602001828054600181600116156101000203166002900480156105175780601f106104ec57610100808354040283529160200191610517565b820191906000526020600020905b8154815290600101906020018083116104fa57829003601f168201915b50505050508152602001600582018054600181600116156101000203166002900480601f0160208091040260200160405190810160405280929190818152602001828054600181600116156101000203166002900480156105b95780601f1061058e576101008083540402835291602001916105b9565b820191906000526020600020905b81548152906001019060200180831161059c57829003601f168201915b505050505081526020016006820160009054906101000a900460ff1615151515815250508152602001906001019061034e565b505050509050919050565b61060083610ff5565b151561060b57600080fd5b610613611006565b60e0604051908101604052808881526020018773ffffffffffffffffffffffffffffffffffffffff16815260200186815260200185815260200184815260200183815260200160011515815250905060036000858152602001908152602001600020819080600181540180825580915050906001820390600052602060002090600702016000909192909190915060008201518160000190805190602001906106bd92919061105c565b5060208201518160010160006101000a81548173ffffffffffffffffffffffffffffffffffffffff021916908373ffffffffffffffffffffffffffffffffffffffff1602179055506040820151816002015560608201518160030155608082015181600401908051906020019061073592919061105c565b5060a082015181600501908051906020019061075292919061105c565b5060c08201518160060160006101000a81548160ff02191690831515021790555050505050505050505050565b60606001805480602002602001604051908101604052809291908181526020016000905b8282101561085f578382906000526020600020018054600181600116156101000203166002900480601f01602080910402602001604051908101604052809291908181526020018280546001816001161561010002031660029004801561084b5780601f106108205761010080835404028352916020019161084b565b820191906000526020600020905b81548152906001019060200180831161082e57829003601f168201915b5050505050815260200190600101906107a3565b50505050905090565b61087181610ff5565b151561087c57600080fd5b610884611006565b60036000838152602001908152602001600020838154811015156108a457fe5b906000526020600020906007020160e06040519081016040529081600082018054600181600116156101000203166002900480601f0160208091040260200160405190810160405280929190818152602001828054600181600116156101000203166002900480156109575780601f1061092c57610100808354040283529160200191610957565b820191906000526020600020905b81548152906001019060200180831161093a57829003601f168201915b505050505081526020016001820160009054906101000a900473ffffffffffffffffffffffffffffffffffffffff1673ffffffffffffffffffffffffffffffffffffffff1673ffffffffffffffffffffffffffffffffffffffff1681526020016002820154815260200160038201548152602001600482018054600181600116156101000203166002900480601f016020809104026020016040519081016040528092919081815260200182805460018160011615610100020316600290048015610a635780601f10610a3857610100808354040283529160200191610a63565b820191906000526020600020905b815481529060010190602001808311610a4657829003601f168201915b50505050508152602001600582018054600181600116156101000203166002900480601f016020809104026020016040519081016040528092919081815260200182805460018160011615610100020316600290048015610b055780601f10610ada57610100808354040283529160200191610b05565b820191906000526020600020905b815481529060010190602001808311610ae857829003601f168201915b505050505081526020016006820160009054906101000a900460ff16151515158152505090508060c001511515610b3b57600080fd5b806020015173ffffffffffffffffffffffffffffffffffffffff166108fc82604001519081150290604051600060405180830381858888f19350505050158015610b89573d6000803e3d6000fd5b50610b926110dc565b60408051908101604052803373ffffffffffffffffffffffffffffffffffffffff1681526020018581525090506002819080600181540180825580915050906001820390600052602060002090600202016000909192909190915060008201518160000160006101000a81548173ffffffffffffffffffffffffffffffffffffffff021916908373ffffffffffffffffffffffffffffffffffffffff160217905550602082015181600101555050507f6cb69c334c714af562673e99406e58f92b982fc6baacdd09da9ea98cb0f03cd98282604051610c729291906117c0565b60405180910390a150505050565b600360205281600052604060002081815481101515610c9b57fe5b906000526020600020906007020160009150915050806000018054600181600116156101000203166002900480601f016020809104026020016040519081016040528092919081815260200182805460018160011615610100020316600290048015610d485780601f10610d1d57610100808354040283529160200191610d48565b820191906000526020600020905b815481529060010190602001808311610d2b57829003601f168201915b5050505050908060010160009054906101000a900473ffffffffffffffffffffffffffffffffffffffff1690806002015490806003015490806004018054600181600116156101000203166002900480601f016020809104026020016040519081016040528092919081815260200182805460018160011615610100020316600290048015610e185780601f10610ded57610100808354040283529160200191610e18565b820191906000526020600020905b815481529060010190602001808311610dfb57829003601f168201915b505050505090806005018054600181600116156101000203166002900480601f016020809104026020016040519081016040528092919081815260200182805460018160011615610100020316600290048015610eb65780601f10610e8b57610100808354040283529160200191610eb6565b820191906000526020600020905b815481529060010190602001808311610e9957829003601f168201915b5050505050908060060160009054906101000a900460ff16905087565b6000809054906101000a900473ffffffffffffffffffffffffffffffffffffffff1681565b600181815481101515610f0757fe5b906000526020600020016000915090508054600181600116156101000203166002900480601f016020809104026020016040519081016040528092919081815260200182805460018160011615610100020316600290048015610fab5780601f10610f8057610100808354040283529160200191610fab565b820191906000526020600020905b815481529060010190602001808311610f8e57829003601f168201915b505050505081565b6001819080600181540180825580915050906001820390600052602060002001600090919290919091509080519060200190610ff092919061110c565b505050565b600060018054905082109050919050565b60e06040519081016040528060608152602001600073ffffffffffffffffffffffffffffffffffffffff168152602001600081526020016000815260200160608152602001606081526020016000151581525090565b828054600181600116156101000203166002900490600052602060002090601f016020900481019282601f1061109d57805160ff19168380011785556110cb565b828001600101855582156110cb579182015b828111156110ca5782518255916020019190600101906110af565b5b5090506110d8919061118c565b5090565b6040805190810160405280600073ffffffffffffffffffffffffffffffffffffffff168152602001600081525090565b828054600181600116156101000203166002900490600052602060002090601f016020900481019282601f1061114d57805160ff191683800117855561117b565b8280016001018555821561117b579182015b8281111561117a57825182559160200191906001019061115f565b5b509050611188919061118c565b5090565b6111ae91905b808211156111aa576000816000905550600101611192565b5090565b90565b60006111bd82356118f8565b905092915050565b600082601f83011215156111d857600080fd5b81356111eb6111e68261181d565b6117f0565b9150808252602083016020830185838301111561120757600080fd5b611212838284611914565b50505092915050565b6000611227823561190a565b905092915050565b60006020828403121561124157600080fd5b600082013567ffffffffffffffff81111561125b57600080fd5b611267848285016111c5565b91505092915050565b60008060008060008060c0878903121561128957600080fd5b600087013567ffffffffffffffff8111156112a357600080fd5b6112af89828a016111c5565b96505060206112c089828a016111b1565b95505060406112d189828a0161121b565b94505060606112e289828a0161121b565b935050608087013567ffffffffffffffff8111156112ff57600080fd5b61130b89828a016111c5565b92505060a087013567ffffffffffffffff81111561132857600080fd5b61133489828a016111c5565b9150509295509295509295565b60006020828403121561135357600080fd5b60006113618482850161121b565b91505092915050565b6000806040838503121561137d57600080fd5b600061138b8582860161121b565b925050602061139c8582860161121b565b9150509250929050565b6113af816118b0565b82525050565b6113be8161189e565b82525050565b60006113cf82611863565b808452602084019350836020820285016113e885611849565b60005b848110156114215783830388526114038383516114af565b925061140e82611884565b91506020880197506001810190506113eb565b508196508694505050505092915050565b600061143d8261186e565b8084526020840193508360208202850161145685611856565b60005b8481101561148f57838303885261147183835161158f565b925061147c82611891565b9150602088019750600181019050611459565b508196508694505050505092915050565b6114a9816118c2565b82525050565b60006114ba82611879565b8084526114ce816020860160208601611923565b6114d781611956565b602085010191505092915050565b600060e083016000830151848203600086015261150282826114af565b915050602083015161151760208601826113a6565b50604083015161152a6040860182611668565b50606083015161153d6060860182611668565b506080830151848203608086015261155582826114af565b91505060a083015184820360a086015261156f82826114af565b91505060c083015161158460c08601826114a0565b508091505092915050565b600060e08301600083015184820360008601526115ac82826114af565b91505060208301516115c160208601826113a6565b5060408301516115d46040860182611668565b5060608301516115e76060860182611668565b50608083015184820360808601526115ff82826114af565b91505060a083015184820360a086015261161982826114af565b91505060c083015161162e60c08601826114a0565b508091505092915050565b60408201600082015161164f60008501826113b5565b5060208201516116626020850182611668565b50505050565b611671816118ee565b82525050565b600060208201905061168c60008301846113b5565b92915050565b60006040820190506116a760008301856113b5565b6116b46020830184611668565b9392505050565b600060208201905081810360008301526116d581846113c4565b905092915050565b600060208201905081810360008301526116f78184611432565b905092915050565b600060208201905061171460008301846114a0565b92915050565b6000602082019050818103600083015261173481846114af565b905092915050565b600060e0820190508181036000830152611756818a6114af565b905061176560208301896113a6565b6117726040830188611668565b61177f6060830187611668565b818103608083015261179181866114af565b905081810360a08301526117a581856114af565b90506117b460c08301846114a0565b98975050505050505050565b600060608201905081810360008301526117da81856114e5565b90506117e96020830184611639565b9392505050565b6000604051905081810181811067ffffffffffffffff8211171561181357600080fd5b8060405250919050565b600067ffffffffffffffff82111561183457600080fd5b601f19601f8301169050602081019050919050565b6000602082019050919050565b6000602082019050919050565b600081519050919050565b600081519050919050565b600081519050919050565b6000602082019050919050565b6000602082019050919050565b60006118a9826118ce565b9050919050565b60006118bb826118ce565b9050919050565b60008115159050919050565b600073ffffffffffffffffffffffffffffffffffffffff82169050919050565b6000819050919050565b6000611903826118ce565b9050919050565b6000819050919050565b82818337600083830152505050565b60005b83811015611941578082015181840152602081019050611926565b83811115611950576000848401525b50505050565b6000601f19601f830116905091905056fea265627a7a72305820ac873f5c885d982261edc75d5d2f7d103b33aba299f29c2d28a19f94695dca496c6578706572696d656e74616cf50037",
  "source": "pragma solidity ^0.5.0;\npragma experimental ABIEncoderV2;\n\ncontract TrustlessHealth {\n\n    address public owner;\n    string[] public categories;\n    receipt[] public receipts;\n    mapping(uint => analysisOffering[]) public analysisOfferings;\n\n    struct analysisOffering {\n        string host;\n        address payable paymentAddress;\n        uint256 price;\n        uint categoryId;\n        string title;\n        string description;\n        bool isValid;\n    }\n\n    struct receipt {\n        address buyerAddress;\n        uint offeringId;\n    }\n\n    event purchasedOffering(analysisOffering offering, receipt purchaseReceipt);\n\n    constructor() public {\n        owner = msg.sender;\n    }\n\n    function submitAnalysisOffering(string memory host, address payable paymentAddress, uint256 price, uint categoryId, string memory title, string memory description) public {\n        require(categoryExists(categoryId));\n        analysisOffering memory offering = analysisOffering(host, paymentAddress, price, categoryId, title, description, true);\n        analysisOfferings[categoryId].push(offering);\n    }\n\n    function createCategory(string memory category) public {\n        categories.push(category);\n    }\n\n    function categoryExists(uint categoryId) public view returns(bool) {\n        return categoryId < categories.length;\n    }\n\n    function getCategories() public view returns(string[] memory) {\n        return categories;\n    }\n\n    function getOfferings(uint categoryId) public view returns(analysisOffering[] memory) {\n        require(categoryExists(categoryId));\n        return analysisOfferings[categoryId];\n    }\n\n    function purchaseOffering(uint offeringId, uint categoryId) public {\n        require(categoryExists(categoryId));\n        analysisOffering memory offering = analysisOfferings[categoryId][offeringId];\n        require(offering.isValid);\n        offering.paymentAddress.transfer(offering.price);\n\n        receipt memory purchaseReceipt = receipt(msg.sender, offeringId);\n        receipts.push(purchaseReceipt);\n        emit purchasedOffering(offering, purchaseReceipt);\n    }\n}\n",
  "sourcePath": "/Users/andreas/dev/trustless-health/smart-contract/contracts/TrustlessHealth.sol",
  "compiler": {
    "name": "solc",
    "version": "0.5.0+commit.1d4f565a.Emscripten.clang"
  },
  "schemaVersion": "3.0.1",
  "updatedAt": "2019-02-16T05:55:14.036Z",
  "devdoc": {
    "methods": {}
  },
  "userdoc": {
    "methods": {}
  }
}